{
  "_format": "hh-sol-artifact-1",
  "contractName": "Staking",
  "sourceName": "contracts/Staking/Staking.sol",
  "abi": [
    {
      "inputs": [
        {
          "internalType": "address",
          "name": "_eq9Contract",
          "type": "address"
        }
      ],
      "stateMutability": "nonpayable",
      "type": "constructor"
    },
    {
      "anonymous": false,
      "inputs": [
        {
          "indexed": true,
          "internalType": "address",
          "name": "previousOwner",
          "type": "address"
        },
        {
          "indexed": true,
          "internalType": "address",
          "name": "newOwner",
          "type": "address"
        }
      ],
      "name": "OwnershipTransferred",
      "type": "event"
    },
    {
      "anonymous": false,
      "inputs": [
        {
          "indexed": false,
          "internalType": "address",
          "name": "account",
          "type": "address"
        }
      ],
      "name": "Paused",
      "type": "event"
    },
    {
      "anonymous": false,
      "inputs": [
        {
          "indexed": false,
          "internalType": "uint256",
          "name": "amount",
          "type": "uint256"
        },
        {
          "indexed": false,
          "internalType": "uint256",
          "name": "timestamp",
          "type": "uint256"
        },
        {
          "indexed": false,
          "internalType": "address",
          "name": "player",
          "type": "address"
        },
        {
          "indexed": false,
          "internalType": "address",
          "name": "staker",
          "type": "address"
        }
      ],
      "name": "Staked",
      "type": "event"
    },
    {
      "anonymous": false,
      "inputs": [
        {
          "indexed": false,
          "internalType": "address",
          "name": "account",
          "type": "address"
        }
      ],
      "name": "Unpaused",
      "type": "event"
    },
    {
      "anonymous": false,
      "inputs": [
        {
          "indexed": false,
          "internalType": "uint256",
          "name": "amount",
          "type": "uint256"
        },
        {
          "indexed": false,
          "internalType": "uint256",
          "name": "timestamp",
          "type": "uint256"
        },
        {
          "indexed": false,
          "internalType": "address",
          "name": "player",
          "type": "address"
        },
        {
          "indexed": false,
          "internalType": "address",
          "name": "staker",
          "type": "address"
        }
      ],
      "name": "Unstaked",
      "type": "event"
    },
    {
      "inputs": [],
      "name": "claim",
      "outputs": [],
      "stateMutability": "nonpayable",
      "type": "function"
    },
    {
      "inputs": [
        {
          "internalType": "address",
          "name": "",
          "type": "address"
        }
      ],
      "name": "claimAmount",
      "outputs": [
        {
          "internalType": "uint256",
          "name": "",
          "type": "uint256"
        }
      ],
      "stateMutability": "view",
      "type": "function"
    },
    {
      "inputs": [
        {
          "internalType": "address",
          "name": "_player",
          "type": "address"
        },
        {
          "internalType": "uint256",
          "name": "_start",
          "type": "uint256"
        },
        {
          "internalType": "uint256",
          "name": "_limit",
          "type": "uint256"
        }
      ],
      "name": "fetchPlayerStakes",
      "outputs": [
        {
          "internalType": "address[]",
          "name": "stakers_",
          "type": "address[]"
        },
        {
          "internalType": "uint256[]",
          "name": "amounts_",
          "type": "uint256[]"
        },
        {
          "internalType": "uint256[]",
          "name": "timestamps_",
          "type": "uint256[]"
        }
      ],
      "stateMutability": "view",
      "type": "function"
    },
    {
      "inputs": [
        {
          "internalType": "address",
          "name": "_player",
          "type": "address"
        }
      ],
      "name": "fetchStakersAmount",
      "outputs": [
        {
          "internalType": "uint256",
          "name": "_stakersAmount",
          "type": "uint256"
        }
      ],
      "stateMutability": "view",
      "type": "function"
    },
    {
      "inputs": [
        {
          "internalType": "address",
          "name": "",
          "type": "address"
        }
      ],
      "name": "lastTimeUserUnstake",
      "outputs": [
        {
          "internalType": "uint256",
          "name": "",
          "type": "uint256"
        }
      ],
      "stateMutability": "view",
      "type": "function"
    },
    {
      "inputs": [],
      "name": "name",
      "outputs": [
        {
          "internalType": "string",
          "name": "",
          "type": "string"
        }
      ],
      "stateMutability": "view",
      "type": "function"
    },
    {
      "inputs": [],
      "name": "owner",
      "outputs": [
        {
          "internalType": "address",
          "name": "",
          "type": "address"
        }
      ],
      "stateMutability": "view",
      "type": "function"
    },
    {
      "inputs": [],
      "name": "paused",
      "outputs": [
        {
          "internalType": "bool",
          "name": "",
          "type": "bool"
        }
      ],
      "stateMutability": "view",
      "type": "function"
    },
    {
      "inputs": [],
      "name": "renounceOwnership",
      "outputs": [],
      "stateMutability": "nonpayable",
      "type": "function"
    },
    {
      "inputs": [
        {
          "internalType": "uint256",
          "name": "_amount",
          "type": "uint256"
        },
        {
          "internalType": "address",
          "name": "_player",
          "type": "address"
        }
      ],
      "name": "stake",
      "outputs": [],
      "stateMutability": "nonpayable",
      "type": "function"
    },
    {
      "inputs": [
        {
          "internalType": "address",
          "name": "",
          "type": "address"
        },
        {
          "internalType": "address",
          "name": "",
          "type": "address"
        }
      ],
      "name": "stakerAmounts",
      "outputs": [
        {
          "internalType": "uint256",
          "name": "",
          "type": "uint256"
        }
      ],
      "stateMutability": "view",
      "type": "function"
    },
    {
      "inputs": [
        {
          "internalType": "address",
          "name": "",
          "type": "address"
        },
        {
          "internalType": "address",
          "name": "",
          "type": "address"
        }
      ],
      "name": "stakerTimestamps",
      "outputs": [
        {
          "internalType": "uint256",
          "name": "",
          "type": "uint256"
        }
      ],
      "stateMutability": "view",
      "type": "function"
    },
    {
      "inputs": [
        {
          "internalType": "address",
          "name": "newOwner",
          "type": "address"
        }
      ],
      "name": "transferOwnership",
      "outputs": [],
      "stateMutability": "nonpayable",
      "type": "function"
    },
    {
      "inputs": [
        {
          "internalType": "uint256",
          "name": "_amount",
          "type": "uint256"
        },
        {
          "internalType": "address",
          "name": "_player",
          "type": "address"
        }
      ],
      "name": "unstake",
      "outputs": [],
      "stateMutability": "nonpayable",
      "type": "function"
    }
  ],
  "bytecode": "0x60806040523480156200001157600080fd5b5060405162002724380380620027248339818101604052810190620000379190620002a2565b620000576200004b6200010f60201b60201c565b6200011760201b60201c565b600180819055506000600260006101000a81548160ff0219169083151502179055506040518060400160405280601081526020017f5374616b696e6720436f6e74726163740000000000000000000000000000000081525060039080519060200190620000c6929190620001db565b5080600460006101000a81548173ffffffffffffffffffffffffffffffffffffffff021916908373ffffffffffffffffffffffffffffffffffffffff160217905550506200038c565b600033905090565b60008060009054906101000a900473ffffffffffffffffffffffffffffffffffffffff169050816000806101000a81548173ffffffffffffffffffffffffffffffffffffffff021916908373ffffffffffffffffffffffffffffffffffffffff1602179055508173ffffffffffffffffffffffffffffffffffffffff168173ffffffffffffffffffffffffffffffffffffffff167f8be0079c531659141344cd1fd0a4f28419497f9722a3daafe3b4186f6b6457e060405160405180910390a35050565b828054620001e99062000308565b90600052602060002090601f0160209004810192826200020d576000855562000259565b82601f106200022857805160ff191683800117855562000259565b8280016001018555821562000259579182015b82811115620002585782518255916020019190600101906200023b565b5b5090506200026891906200026c565b5090565b5b80821115620002875760008160009055506001016200026d565b5090565b6000815190506200029c8162000372565b92915050565b600060208284031215620002bb57620002ba6200036d565b5b6000620002cb848285016200028b565b91505092915050565b6000620002e182620002e8565b9050919050565b600073ffffffffffffffffffffffffffffffffffffffff82169050919050565b600060028204905060018216806200032157607f821691505b602082108114156200033857620003376200033e565b5b50919050565b7f4e487b7100000000000000000000000000000000000000000000000000000000600052602260045260246000fd5b600080fd5b6200037d81620002d4565b81146200038957600080fd5b50565b612388806200039c6000396000f3fe608060405234801561001057600080fd5b50600436106100ea5760003560e01c806378317be71161008c5780638da5cb5b116100665780638da5cb5b14610237578063a3b897bc14610255578063ccb62ea914610287578063f2fde38b146102b7576100ea565b806378317be7146101cf5780637acb7757146101ff5780638381e1821461021b576100ea565b80634e71d92d116100c85780634e71d92d1461016d5780635c975abb14610177578063627e907014610195578063715018a6146101c5576100ea565b806306fdde03146100ef5780632f304a201461010d5780633b401a961461013d575b600080fd5b6100f76102d3565b6040516101049190611c3a565b60405180910390f35b61012760048036038101906101229190611788565b610361565b6040516101349190611d5c565b60405180910390f35b61015760048036038101906101529190611788565b610386565b6040516101649190611d5c565b60405180910390f35b6101756103ab565b005b61017f610571565b60405161018c9190611c1f565b60405180910390f35b6101af60048036038101906101aa919061175b565b610588565b6040516101bc9190611d5c565b60405180910390f35b6101cd6105d8565b005b6101e960048036038101906101e4919061175b565b6105ec565b6040516101f69190611d5c565b60405180910390f35b61021960048036038101906102149190611848565b610604565b005b61023560048036038101906102309190611848565b610850565b005b61023f610c66565b60405161024c9190611b58565b60405180910390f35b61026f600480360381019061026a91906117c8565b610c8f565b60405161027e93929190611bd3565b60405180910390f35b6102a1600480360381019061029c919061175b565b610f8e565b6040516102ae9190611d5c565b60405180910390f35b6102d160048036038101906102cc919061175b565b610fa6565b005b600380546102e090611f65565b80601f016020809104026020016040519081016040528092919081815260200182805461030c90611f65565b80156103595780601f1061032e57610100808354040283529160200191610359565b820191906000526020600020905b81548152906001019060200180831161033c57829003601f168201915b505050505081565b6007602052816000526040600020602052806000526040600020600091509150505481565b6006602052816000526040600020602052806000526040600020600091509150505481565b62015180600960003373ffffffffffffffffffffffffffffffffffffffff1673ffffffffffffffffffffffffffffffffffffffff168152602001908152602001600020546103f99190611e60565b42101561043b576040517f08c379a000000000000000000000000000000000000000000000000000000000815260040161043290611c7c565b60405180910390fd5b600460009054906101000a900473ffffffffffffffffffffffffffffffffffffffff1673ffffffffffffffffffffffffffffffffffffffff1663a9059cbb33600860003373ffffffffffffffffffffffffffffffffffffffff1673ffffffffffffffffffffffffffffffffffffffff168152602001908152602001600020546040518363ffffffff1660e01b81526004016104d7929190611baa565b602060405180830381600087803b1580156104f157600080fd5b505af1158015610505573d6000803e3d6000fd5b505050506040513d601f19601f82011682018060405250810190610529919061181b565b506000600860003373ffffffffffffffffffffffffffffffffffffffff1673ffffffffffffffffffffffffffffffffffffffff16815260200190815260200160002081905550565b6000600260009054906101000a900460ff16905090565b60006105d1600560008473ffffffffffffffffffffffffffffffffffffffff1673ffffffffffffffffffffffffffffffffffffffff16815260200190815260200160002061102a565b9050919050565b6105e061103f565b6105ea60006110bd565b565b60086020528060005260406000206000915090505481565b61065533600560008473ffffffffffffffffffffffffffffffffffffffff1673ffffffffffffffffffffffffffffffffffffffff16815260200190815260200160002061118190919063ffffffff16565b61072d576106aa33600560008473ffffffffffffffffffffffffffffffffffffffff1673ffffffffffffffffffffffffffffffffffffffff1681526020019081526020016000206111b190919063ffffffff16565b5042600660008373ffffffffffffffffffffffffffffffffffffffff1673ffffffffffffffffffffffffffffffffffffffff16815260200190815260200160002060003373ffffffffffffffffffffffffffffffffffffffff1673ffffffffffffffffffffffffffffffffffffffff168152602001908152602001600020819055505b81600760008373ffffffffffffffffffffffffffffffffffffffff1673ffffffffffffffffffffffffffffffffffffffff16815260200190815260200160002060003373ffffffffffffffffffffffffffffffffffffffff1673ffffffffffffffffffffffffffffffffffffffff16815260200190815260200160002060008282546107b99190611e60565b9250508190555061080f333084600460009054906101000a900473ffffffffffffffffffffffffffffffffffffffff1673ffffffffffffffffffffffffffffffffffffffff166111e1909392919063ffffffff16565b7f1bdfb69e9c0add275a829652c5097d91e0b89f314be1ecd62ed466b843dd25ad824283336040516108449493929190611d77565b60405180910390a15050565b6108a133600560008473ffffffffffffffffffffffffffffffffffffffff1673ffffffffffffffffffffffffffffffffffffffff16815260200190815260200160002061118190919063ffffffff16565b6108e0576040517f08c379a00000000000000000000000000000000000000000000000000000000081526004016108d790611cbc565b60405180910390fd5b600760008273ffffffffffffffffffffffffffffffffffffffff1673ffffffffffffffffffffffffffffffffffffffff16815260200190815260200160002060003373ffffffffffffffffffffffffffffffffffffffff1673ffffffffffffffffffffffffffffffffffffffff1681526020019081526020016000205482111561099f576040517f08c379a000000000000000000000000000000000000000000000000000000000815260040161099690611cdc565b60405180910390fd5b81600760008373ffffffffffffffffffffffffffffffffffffffff1673ffffffffffffffffffffffffffffffffffffffff16815260200190815260200160002060003373ffffffffffffffffffffffffffffffffffffffff1673ffffffffffffffffffffffffffffffffffffffff168152602001908152602001600020541415610af857610a7433600560008473ffffffffffffffffffffffffffffffffffffffff1673ffffffffffffffffffffffffffffffffffffffff16815260200190815260200160002061126a90919063ffffffff16565b506000600660008373ffffffffffffffffffffffffffffffffffffffff1673ffffffffffffffffffffffffffffffffffffffff16815260200190815260200160002060003373ffffffffffffffffffffffffffffffffffffffff1673ffffffffffffffffffffffffffffffffffffffff168152602001908152602001600020819055505b42600960003373ffffffffffffffffffffffffffffffffffffffff1673ffffffffffffffffffffffffffffffffffffffff1681526020019081526020016000208190555081600760008373ffffffffffffffffffffffffffffffffffffffff1673ffffffffffffffffffffffffffffffffffffffff16815260200190815260200160002060003373ffffffffffffffffffffffffffffffffffffffff1673ffffffffffffffffffffffffffffffffffffffff1681526020019081526020016000206000828254610bc89190611eb6565b9250508190555081600860003373ffffffffffffffffffffffffffffffffffffffff1673ffffffffffffffffffffffffffffffffffffffff1681526020019081526020016000206000828254610c1e9190611e60565b925050819055507f04b156f7a52c80c4c5f75ddb5528256851d029e1e05071f37db18f17a04561a382428333604051610c5a9493929190611d77565b60405180910390a15050565b60008060009054906101000a900473ffffffffffffffffffffffffffffffffffffffff16905090565b606080606060008467ffffffffffffffff811115610cb057610caf61209c565b5b604051908082528060200260200182016040528015610cde5781602001602082028036833780820191505090505b50905060008567ffffffffffffffff811115610cfd57610cfc61209c565b5b604051908082528060200260200182016040528015610d2b5781602001602082028036833780820191505090505b50905060008667ffffffffffffffff811115610d4a57610d4961209c565b5b604051908082528060200260200182016040528015610d785781602001602082028036833780820191505090505b50905060008890505b87811015610f78576000610ddc82600560008e73ffffffffffffffffffffffffffffffffffffffff1673ffffffffffffffffffffffffffffffffffffffff16815260200190815260200160002061129a90919063ffffffff16565b905080858381518110610df257610df161206d565b5b602002602001019073ffffffffffffffffffffffffffffffffffffffff16908173ffffffffffffffffffffffffffffffffffffffff1681525050600760008c73ffffffffffffffffffffffffffffffffffffffff1673ffffffffffffffffffffffffffffffffffffffff16815260200190815260200160002060008273ffffffffffffffffffffffffffffffffffffffff1673ffffffffffffffffffffffffffffffffffffffff16815260200190815260200160002054848381518110610ebc57610ebb61206d565b5b602002602001018181525050600660008c73ffffffffffffffffffffffffffffffffffffffff1673ffffffffffffffffffffffffffffffffffffffff16815260200190815260200160002060008273ffffffffffffffffffffffffffffffffffffffff1673ffffffffffffffffffffffffffffffffffffffff16815260200190815260200160002054838381518110610f5857610f5761206d565b5b602002602001018181525050508080610f7090611f97565b915050610d81565b5082828295509550955050505093509350939050565b60096020528060005260406000206000915090505481565b610fae61103f565b600073ffffffffffffffffffffffffffffffffffffffff168173ffffffffffffffffffffffffffffffffffffffff16141561101e576040517f08c379a000000000000000000000000000000000000000000000000000000000815260040161101590611c5c565b60405180910390fd5b611027816110bd565b50565b6000611038826000016112b4565b9050919050565b6110476112c5565b73ffffffffffffffffffffffffffffffffffffffff16611065610c66565b73ffffffffffffffffffffffffffffffffffffffff16146110bb576040517f08c379a00000000000000000000000000000000000000000000000000000000081526004016110b290611cfc565b60405180910390fd5b565b60008060009054906101000a900473ffffffffffffffffffffffffffffffffffffffff169050816000806101000a81548173ffffffffffffffffffffffffffffffffffffffff021916908373ffffffffffffffffffffffffffffffffffffffff1602179055508173ffffffffffffffffffffffffffffffffffffffff168173ffffffffffffffffffffffffffffffffffffffff167f8be0079c531659141344cd1fd0a4f28419497f9722a3daafe3b4186f6b6457e060405160405180910390a35050565b60006111a9836000018373ffffffffffffffffffffffffffffffffffffffff1660001b6112cd565b905092915050565b60006111d9836000018373ffffffffffffffffffffffffffffffffffffffff1660001b6112f0565b905092915050565b611264846323b872dd60e01b85858560405160240161120293929190611b73565b604051602081830303815290604052907bffffffffffffffffffffffffffffffffffffffffffffffffffffffff19166020820180517bffffffffffffffffffffffffffffffffffffffffffffffffffffffff8381831617835250505050611360565b50505050565b6000611292836000018373ffffffffffffffffffffffffffffffffffffffff1660001b611427565b905092915050565b60006112a9836000018361153b565b60001c905092915050565b600081600001805490509050919050565b600033905090565b600080836001016000848152602001908152602001600020541415905092915050565b60006112fc83836112cd565b61135557826000018290806001815401808255809150506001900390600052602060002001600090919091909150558260000180549050836001016000848152602001908152602001600020819055506001905061135a565b600090505b92915050565b60006113c2826040518060400160405280602081526020017f5361666545524332303a206c6f772d6c6576656c2063616c6c206661696c65648152508573ffffffffffffffffffffffffffffffffffffffff166115669092919063ffffffff16565b905060008151111561142257808060200190518101906113e2919061181b565b611421576040517f08c379a000000000000000000000000000000000000000000000000000000000815260040161141890611d3c565b60405180910390fd5b5b505050565b6000808360010160008481526020019081526020016000205490506000811461152f5760006001826114599190611eb6565b90506000600186600001805490506114719190611eb6565b90508181146114e05760008660000182815481106114925761149161206d565b5b90600052602060002001549050808760000184815481106114b6576114b561206d565b5b90600052602060002001819055508387600101600083815260200190815260200160002081905550505b856000018054806114f4576114f361203e565b5b600190038181906000526020600020016000905590558560010160008681526020019081526020016000206000905560019350505050611535565b60009150505b92915050565b60008260000182815481106115535761155261206d565b5b9060005260206000200154905092915050565b6060611575848460008561157e565b90509392505050565b6060824710156115c3576040517f08c379a00000000000000000000000000000000000000000000000000000000081526004016115ba90611c9c565b60405180910390fd5b6115cc85611692565b61160b576040517f08c379a000000000000000000000000000000000000000000000000000000000815260040161160290611d1c565b60405180910390fd5b6000808673ffffffffffffffffffffffffffffffffffffffff1685876040516116349190611b41565b60006040518083038185875af1925050503d8060008114611671576040519150601f19603f3d011682016040523d82523d6000602084013e611676565b606091505b50915091506116868282866116b5565b92505050949350505050565b6000808273ffffffffffffffffffffffffffffffffffffffff163b119050919050565b606083156116c557829050611715565b6000835111156116d85782518084602001fd5b816040517f08c379a000000000000000000000000000000000000000000000000000000000815260040161170c9190611c3a565b60405180910390fd5b9392505050565b60008135905061172b8161230d565b92915050565b60008151905061174081612324565b92915050565b6000813590506117558161233b565b92915050565b600060208284031215611771576117706120cb565b5b600061177f8482850161171c565b91505092915050565b6000806040838503121561179f5761179e6120cb565b5b60006117ad8582860161171c565b92505060206117be8582860161171c565b9150509250929050565b6000806000606084860312156117e1576117e06120cb565b5b60006117ef8682870161171c565b935050602061180086828701611746565b925050604061181186828701611746565b9150509250925092565b600060208284031215611831576118306120cb565b5b600061183f84828501611731565b91505092915050565b6000806040838503121561185f5761185e6120cb565b5b600061186d85828601611746565b925050602061187e8582860161171c565b9150509250929050565b600061189483836118b8565b60208301905092915050565b60006118ac8383611b23565b60208301905092915050565b6118c181611eea565b82525050565b6118d081611eea565b82525050565b60006118e182611ddc565b6118eb8185611e22565b93506118f683611dbc565b8060005b8381101561192757815161190e8882611888565b975061191983611e08565b9250506001810190506118fa565b5085935050505092915050565b600061193f82611de7565b6119498185611e33565b935061195483611dcc565b8060005b8381101561198557815161196c88826118a0565b975061197783611e15565b925050600181019050611958565b5085935050505092915050565b61199b81611efc565b82525050565b60006119ac82611df2565b6119b68185611e44565b93506119c6818560208601611f32565b80840191505092915050565b60006119dd82611dfd565b6119e78185611e4f565b93506119f7818560208601611f32565b611a00816120d0565b840191505092915050565b6000611a18602683611e4f565b9150611a23826120e1565b604082019050919050565b6000611a3b603483611e4f565b9150611a4682612130565b604082019050919050565b6000611a5e602683611e4f565b9150611a698261217f565b604082019050919050565b6000611a81602c83611e4f565b9150611a8c826121ce565b604082019050919050565b6000611aa4602883611e4f565b9150611aaf8261221d565b604082019050919050565b6000611ac7602083611e4f565b9150611ad28261226c565b602082019050919050565b6000611aea601d83611e4f565b9150611af582612295565b602082019050919050565b6000611b0d602a83611e4f565b9150611b18826122be565b604082019050919050565b611b2c81611f28565b82525050565b611b3b81611f28565b82525050565b6000611b4d82846119a1565b915081905092915050565b6000602082019050611b6d60008301846118c7565b92915050565b6000606082019050611b8860008301866118c7565b611b9560208301856118c7565b611ba26040830184611b32565b949350505050565b6000604082019050611bbf60008301856118c7565b611bcc6020830184611b32565b9392505050565b60006060820190508181036000830152611bed81866118d6565b90508181036020830152611c018185611934565b90508181036040830152611c158184611934565b9050949350505050565b6000602082019050611c346000830184611992565b92915050565b60006020820190508181036000830152611c5481846119d2565b905092915050565b60006020820190508181036000830152611c7581611a0b565b9050919050565b60006020820190508181036000830152611c9581611a2e565b9050919050565b60006020820190508181036000830152611cb581611a51565b9050919050565b60006020820190508181036000830152611cd581611a74565b9050919050565b60006020820190508181036000830152611cf581611a97565b9050919050565b60006020820190508181036000830152611d1581611aba565b9050919050565b60006020820190508181036000830152611d3581611add565b9050919050565b60006020820190508181036000830152611d5581611b00565b9050919050565b6000602082019050611d716000830184611b32565b92915050565b6000608082019050611d8c6000830187611b32565b611d996020830186611b32565b611da660408301856118c7565b611db360608301846118c7565b95945050505050565b6000819050602082019050919050565b6000819050602082019050919050565b600081519050919050565b600081519050919050565b600081519050919050565b600081519050919050565b6000602082019050919050565b6000602082019050919050565b600082825260208201905092915050565b600082825260208201905092915050565b600081905092915050565b600082825260208201905092915050565b6000611e6b82611f28565b9150611e7683611f28565b9250827fffffffffffffffffffffffffffffffffffffffffffffffffffffffffffffffff03821115611eab57611eaa611fe0565b5b828201905092915050565b6000611ec182611f28565b9150611ecc83611f28565b925082821015611edf57611ede611fe0565b5b828203905092915050565b6000611ef582611f08565b9050919050565b60008115159050919050565b600073ffffffffffffffffffffffffffffffffffffffff82169050919050565b6000819050919050565b60005b83811015611f50578082015181840152602081019050611f35565b83811115611f5f576000848401525b50505050565b60006002820490506001821680611f7d57607f821691505b60208210811415611f9157611f9061200f565b5b50919050565b6000611fa282611f28565b91507fffffffffffffffffffffffffffffffffffffffffffffffffffffffffffffffff821415611fd557611fd4611fe0565b5b600182019050919050565b7f4e487b7100000000000000000000000000000000000000000000000000000000600052601160045260246000fd5b7f4e487b7100000000000000000000000000000000000000000000000000000000600052602260045260246000fd5b7f4e487b7100000000000000000000000000000000000000000000000000000000600052603160045260246000fd5b7f4e487b7100000000000000000000000000000000000000000000000000000000600052603260045260246000fd5b7f4e487b7100000000000000000000000000000000000000000000000000000000600052604160045260246000fd5b600080fd5b6000601f19601f8301169050919050565b7f4f776e61626c653a206e6577206f776e657220697320746865207a65726f206160008201527f6464726573730000000000000000000000000000000000000000000000000000602082015250565b7f556e61626c6520746f20636c61696d2c20323420686f757273207374696c6c2060008201527f68617665206e6f74206861766520706173736564000000000000000000000000602082015250565b7f416464726573733a20696e73756666696369656e742062616c616e636520666f60008201527f722063616c6c0000000000000000000000000000000000000000000000000000602082015250565b7f596f7520617265206e6f74207374616b696e6720696e746f207468697320706c60008201527f6179657220616464726573730000000000000000000000000000000000000000602082015250565b7f4e6f7420656e6f756768207374616b656420616d6f756e7420696e746f20746860008201527f6520706c61796572000000000000000000000000000000000000000000000000602082015250565b7f4f776e61626c653a2063616c6c6572206973206e6f7420746865206f776e6572600082015250565b7f416464726573733a2063616c6c20746f206e6f6e2d636f6e7472616374000000600082015250565b7f5361666545524332303a204552433230206f7065726174696f6e20646964206e60008201527f6f74207375636365656400000000000000000000000000000000000000000000602082015250565b61231681611eea565b811461232157600080fd5b50565b61232d81611efc565b811461233857600080fd5b50565b61234481611f28565b811461234f57600080fd5b5056fea264697066735822122031fb271a5e503e0368c148f841eae96be5124397f7ccf273e61898c31195ab2864736f6c63430008060033",
  "linkReferences": {},
  "deployedLinkReferences": {}
}