{
    "_format": "hh-sol-artifact-1",
    "contractName": "Staking",
    "sourceName": "contracts/Staking/Staking.sol",
    "abi": [
        {
            "inputs": [
                {
                    "internalType": "address",
                    "name": "_eq9Contract",
                    "type": "address"
                }
            ],
            "stateMutability": "nonpayable",
            "type": "constructor"
        },
        {
            "anonymous": false,
            "inputs": [
                {
                    "indexed": true,
                    "internalType": "address",
                    "name": "previousOwner",
                    "type": "address"
                },
                {
                    "indexed": true,
                    "internalType": "address",
                    "name": "newOwner",
                    "type": "address"
                }
            ],
            "name": "OwnershipTransferred",
            "type": "event"
        },
        {
            "anonymous": false,
            "inputs": [
                {
                    "indexed": false,
                    "internalType": "address",
                    "name": "account",
                    "type": "address"
                }
            ],
            "name": "Paused",
            "type": "event"
        },
        {
            "anonymous": false,
            "inputs": [
                {
                    "indexed": false,
                    "internalType": "uint256",
                    "name": "amount",
                    "type": "uint256"
                },
                {
                    "indexed": false,
                    "internalType": "address",
                    "name": "player",
                    "type": "address"
                },
                {
                    "indexed": false,
                    "internalType": "address",
                    "name": "staker",
                    "type": "address"
                }
            ],
            "name": "Staked",
            "type": "event"
        },
        {
            "anonymous": false,
            "inputs": [
                {
                    "indexed": false,
                    "internalType": "address",
                    "name": "account",
                    "type": "address"
                }
            ],
            "name": "Unpaused",
            "type": "event"
        },
        {
            "anonymous": false,
            "inputs": [
                {
                    "indexed": false,
                    "internalType": "uint256",
                    "name": "amount",
                    "type": "uint256"
                },
                {
                    "indexed": false,
                    "internalType": "address",
                    "name": "player",
                    "type": "address"
                },
                {
                    "indexed": false,
                    "internalType": "address",
                    "name": "staker",
                    "type": "address"
                }
            ],
            "name": "Unstaked",
            "type": "event"
        },
        {
            "inputs": [],
            "name": "claim",
            "outputs": [],
            "stateMutability": "nonpayable",
            "type": "function"
        },
        {
            "inputs": [
                {
                    "internalType": "address",
                    "name": "",
                    "type": "address"
                }
            ],
            "name": "claimAmount",
            "outputs": [
                {
                    "internalType": "uint256",
                    "name": "",
                    "type": "uint256"
                }
            ],
            "stateMutability": "view",
            "type": "function"
        },
        {
            "inputs": [
                {
                    "internalType": "address",
                    "name": "_player",
                    "type": "address"
                },
                {
                    "internalType": "uint256",
                    "name": "_start",
                    "type": "uint256"
                },
                {
                    "internalType": "uint256",
                    "name": "_limit",
                    "type": "uint256"
                }
            ],
            "name": "fetchPlayerStakes",
            "outputs": [
                {
                    "internalType": "address[]",
                    "name": "stakers_",
                    "type": "address[]"
                },
                {
                    "internalType": "uint256[]",
                    "name": "amounts_",
                    "type": "uint256[]"
                },
                {
                    "internalType": "uint256[]",
                    "name": "timestamps_",
                    "type": "uint256[]"
                }
            ],
            "stateMutability": "view",
            "type": "function"
        },
        {
            "inputs": [
                {
                    "internalType": "address",
                    "name": "_player",
                    "type": "address"
                }
            ],
            "name": "fetchStakersAmount",
            "outputs": [
                {
                    "internalType": "uint256",
                    "name": "_stakersAmount",
                    "type": "uint256"
                }
            ],
            "stateMutability": "view",
            "type": "function"
        },
        {
            "inputs": [
                {
                    "internalType": "address",
                    "name": "",
                    "type": "address"
                }
            ],
            "name": "lastTimeUserUnstake",
            "outputs": [
                {
                    "internalType": "uint256",
                    "name": "",
                    "type": "uint256"
                }
            ],
            "stateMutability": "view",
            "type": "function"
        },
        {
            "inputs": [],
            "name": "name",
            "outputs": [
                {
                    "internalType": "string",
                    "name": "",
                    "type": "string"
                }
            ],
            "stateMutability": "view",
            "type": "function"
        },
        {
            "inputs": [],
            "name": "owner",
            "outputs": [
                {
                    "internalType": "address",
                    "name": "",
                    "type": "address"
                }
            ],
            "stateMutability": "view",
            "type": "function"
        },
        {
            "inputs": [],
            "name": "paused",
            "outputs": [
                {
                    "internalType": "bool",
                    "name": "",
                    "type": "bool"
                }
            ],
            "stateMutability": "view",
            "type": "function"
        },
        {
            "inputs": [],
            "name": "renounceOwnership",
            "outputs": [],
            "stateMutability": "nonpayable",
            "type": "function"
        },
        {
            "inputs": [
                {
                    "internalType": "uint256",
                    "name": "_amount",
                    "type": "uint256"
                },
                {
                    "internalType": "address",
                    "name": "_player",
                    "type": "address"
                }
            ],
            "name": "stake",
            "outputs": [],
            "stateMutability": "nonpayable",
            "type": "function"
        },
        {
            "inputs": [
                {
                    "internalType": "address",
                    "name": "",
                    "type": "address"
                },
                {
                    "internalType": "address",
                    "name": "",
                    "type": "address"
                }
            ],
            "name": "stakerAmounts",
            "outputs": [
                {
                    "internalType": "uint256",
                    "name": "",
                    "type": "uint256"
                }
            ],
            "stateMutability": "view",
            "type": "function"
        },
        {
            "inputs": [
                {
                    "internalType": "address",
                    "name": "",
                    "type": "address"
                },
                {
                    "internalType": "address",
                    "name": "",
                    "type": "address"
                }
            ],
            "name": "stakerTimestamps",
            "outputs": [
                {
                    "internalType": "uint256",
                    "name": "",
                    "type": "uint256"
                }
            ],
            "stateMutability": "view",
            "type": "function"
        },
        {
            "inputs": [
                {
                    "internalType": "address",
                    "name": "newOwner",
                    "type": "address"
                }
            ],
            "name": "transferOwnership",
            "outputs": [],
            "stateMutability": "nonpayable",
            "type": "function"
        },
        {
            "inputs": [
                {
                    "internalType": "uint256",
                    "name": "_amount",
                    "type": "uint256"
                },
                {
                    "internalType": "address",
                    "name": "_player",
                    "type": "address"
                }
            ],
            "name": "unstake",
            "outputs": [],
            "stateMutability": "nonpayable",
            "type": "function"
        }
    ],
    "bytecode": "0x60806040523480156200001157600080fd5b5060405162002712380380620027128339818101604052810190620000379190620002a2565b620000576200004b6200010f60201b60201c565b6200011760201b60201c565b600180819055506000600260006101000a81548160ff0219169083151502179055506040518060400160405280601081526020017f5374616b696e6720436f6e74726163740000000000000000000000000000000081525060039080519060200190620000c6929190620001db565b5080600460006101000a81548173ffffffffffffffffffffffffffffffffffffffff021916908373ffffffffffffffffffffffffffffffffffffffff160217905550506200038c565b600033905090565b60008060009054906101000a900473ffffffffffffffffffffffffffffffffffffffff169050816000806101000a81548173ffffffffffffffffffffffffffffffffffffffff021916908373ffffffffffffffffffffffffffffffffffffffff1602179055508173ffffffffffffffffffffffffffffffffffffffff168173ffffffffffffffffffffffffffffffffffffffff167f8be0079c531659141344cd1fd0a4f28419497f9722a3daafe3b4186f6b6457e060405160405180910390a35050565b828054620001e99062000308565b90600052602060002090601f0160209004810192826200020d576000855562000259565b82601f106200022857805160ff191683800117855562000259565b8280016001018555821562000259579182015b82811115620002585782518255916020019190600101906200023b565b5b5090506200026891906200026c565b5090565b5b80821115620002875760008160009055506001016200026d565b5090565b6000815190506200029c8162000372565b92915050565b600060208284031215620002bb57620002ba6200036d565b5b6000620002cb848285016200028b565b91505092915050565b6000620002e182620002e8565b9050919050565b600073ffffffffffffffffffffffffffffffffffffffff82169050919050565b600060028204905060018216806200032157607f821691505b602082108114156200033857620003376200033e565b5b50919050565b7f4e487b7100000000000000000000000000000000000000000000000000000000600052602260045260246000fd5b600080fd5b6200037d81620002d4565b81146200038957600080fd5b50565b612376806200039c6000396000f3fe608060405234801561001057600080fd5b50600436106100ea5760003560e01c806378317be71161008c5780638da5cb5b116100665780638da5cb5b14610237578063a3b897bc14610255578063ccb62ea914610287578063f2fde38b146102b7576100ea565b806378317be7146101cf5780637acb7757146101ff5780638381e1821461021b576100ea565b80634e71d92d116100c85780634e71d92d1461016d5780635c975abb14610177578063627e907014610195578063715018a6146101c5576100ea565b806306fdde03146100ef5780632f304a201461010d5780633b401a961461013d575b600080fd5b6100f76102d3565b6040516101049190611c36565b60405180910390f35b61012760048036038101906101229190611784565b610361565b6040516101349190611d58565b60405180910390f35b61015760048036038101906101529190611784565b610386565b6040516101649190611d58565b60405180910390f35b6101756103ab565b005b61017f610571565b60405161018c9190611c1b565b60405180910390f35b6101af60048036038101906101aa9190611757565b610588565b6040516101bc9190611d58565b60405180910390f35b6101cd6105d8565b005b6101e960048036038101906101e49190611757565b6105ec565b6040516101f69190611d58565b60405180910390f35b61021960048036038101906102149190611844565b610604565b005b61023560048036038101906102309190611844565b61084e565b005b61023f610c62565b60405161024c9190611b54565b60405180910390f35b61026f600480360381019061026a91906117c4565b610c8b565b60405161027e93929190611bcf565b60405180910390f35b6102a1600480360381019061029c9190611757565b610f8a565b6040516102ae9190611d58565b60405180910390f35b6102d160048036038101906102cc9190611757565b610fa2565b005b600380546102e090611f53565b80601f016020809104026020016040519081016040528092919081815260200182805461030c90611f53565b80156103595780601f1061032e57610100808354040283529160200191610359565b820191906000526020600020905b81548152906001019060200180831161033c57829003601f168201915b505050505081565b6007602052816000526040600020602052806000526040600020600091509150505481565b6006602052816000526040600020602052806000526040600020600091509150505481565b62015180600960003373ffffffffffffffffffffffffffffffffffffffff1673ffffffffffffffffffffffffffffffffffffffff168152602001908152602001600020546103f99190611e4e565b42101561043b576040517f08c379a000000000000000000000000000000000000000000000000000000000815260040161043290611c78565b60405180910390fd5b600460009054906101000a900473ffffffffffffffffffffffffffffffffffffffff1673ffffffffffffffffffffffffffffffffffffffff1663a9059cbb33600860003373ffffffffffffffffffffffffffffffffffffffff1673ffffffffffffffffffffffffffffffffffffffff168152602001908152602001600020546040518363ffffffff1660e01b81526004016104d7929190611ba6565b602060405180830381600087803b1580156104f157600080fd5b505af1158015610505573d6000803e3d6000fd5b505050506040513d601f19601f820116820180604052508101906105299190611817565b506000600860003373ffffffffffffffffffffffffffffffffffffffff1673ffffffffffffffffffffffffffffffffffffffff16815260200190815260200160002081905550565b6000600260009054906101000a900460ff16905090565b60006105d1600560008473ffffffffffffffffffffffffffffffffffffffff1673ffffffffffffffffffffffffffffffffffffffff168152602001908152602001600020611026565b9050919050565b6105e061103b565b6105ea60006110b9565b565b60086020528060005260406000206000915090505481565b61065533600560008473ffffffffffffffffffffffffffffffffffffffff1673ffffffffffffffffffffffffffffffffffffffff16815260200190815260200160002061117d90919063ffffffff16565b61072d576106aa33600560008473ffffffffffffffffffffffffffffffffffffffff1673ffffffffffffffffffffffffffffffffffffffff1681526020019081526020016000206111ad90919063ffffffff16565b5042600660008373ffffffffffffffffffffffffffffffffffffffff1673ffffffffffffffffffffffffffffffffffffffff16815260200190815260200160002060003373ffffffffffffffffffffffffffffffffffffffff1673ffffffffffffffffffffffffffffffffffffffff168152602001908152602001600020819055505b81600760008373ffffffffffffffffffffffffffffffffffffffff1673ffffffffffffffffffffffffffffffffffffffff16815260200190815260200160002060003373ffffffffffffffffffffffffffffffffffffffff1673ffffffffffffffffffffffffffffffffffffffff16815260200190815260200160002060008282546107b99190611e4e565b9250508190555061080f333084600460009054906101000a900473ffffffffffffffffffffffffffffffffffffffff1673ffffffffffffffffffffffffffffffffffffffff166111dd909392919063ffffffff16565b7ffd9ef69e5b3dad38cde17536045460e90157785ef5fde2f37283d585139967d082823360405161084293929190611d73565b60405180910390a15050565b61089f33600560008473ffffffffffffffffffffffffffffffffffffffff1673ffffffffffffffffffffffffffffffffffffffff16815260200190815260200160002061117d90919063ffffffff16565b6108de576040517f08c379a00000000000000000000000000000000000000000000000000000000081526004016108d590611cb8565b60405180910390fd5b600760008273ffffffffffffffffffffffffffffffffffffffff1673ffffffffffffffffffffffffffffffffffffffff16815260200190815260200160002060003373ffffffffffffffffffffffffffffffffffffffff1673ffffffffffffffffffffffffffffffffffffffff1681526020019081526020016000205482111561099d576040517f08c379a000000000000000000000000000000000000000000000000000000000815260040161099490611cd8565b60405180910390fd5b81600760008373ffffffffffffffffffffffffffffffffffffffff1673ffffffffffffffffffffffffffffffffffffffff16815260200190815260200160002060003373ffffffffffffffffffffffffffffffffffffffff1673ffffffffffffffffffffffffffffffffffffffff168152602001908152602001600020541415610af657610a7233600560008473ffffffffffffffffffffffffffffffffffffffff1673ffffffffffffffffffffffffffffffffffffffff16815260200190815260200160002061126690919063ffffffff16565b506000600660008373ffffffffffffffffffffffffffffffffffffffff1673ffffffffffffffffffffffffffffffffffffffff16815260200190815260200160002060003373ffffffffffffffffffffffffffffffffffffffff1673ffffffffffffffffffffffffffffffffffffffff168152602001908152602001600020819055505b42600960003373ffffffffffffffffffffffffffffffffffffffff1673ffffffffffffffffffffffffffffffffffffffff1681526020019081526020016000208190555081600760008373ffffffffffffffffffffffffffffffffffffffff1673ffffffffffffffffffffffffffffffffffffffff16815260200190815260200160002060003373ffffffffffffffffffffffffffffffffffffffff1673ffffffffffffffffffffffffffffffffffffffff1681526020019081526020016000206000828254610bc69190611ea4565b9250508190555081600860003373ffffffffffffffffffffffffffffffffffffffff1673ffffffffffffffffffffffffffffffffffffffff1681526020019081526020016000206000828254610c1c9190611e4e565b925050819055507f2169a10d8da88bc1d63b3d06cba6a0503e6364686a840e32235fb19866e582a9828233604051610c5693929190611d73565b60405180910390a15050565b60008060009054906101000a900473ffffffffffffffffffffffffffffffffffffffff16905090565b606080606060008467ffffffffffffffff811115610cac57610cab61208a565b5b604051908082528060200260200182016040528015610cda5781602001602082028036833780820191505090505b50905060008567ffffffffffffffff811115610cf957610cf861208a565b5b604051908082528060200260200182016040528015610d275781602001602082028036833780820191505090505b50905060008667ffffffffffffffff811115610d4657610d4561208a565b5b604051908082528060200260200182016040528015610d745781602001602082028036833780820191505090505b50905060008890505b87811015610f74576000610dd882600560008e73ffffffffffffffffffffffffffffffffffffffff1673ffffffffffffffffffffffffffffffffffffffff16815260200190815260200160002061129690919063ffffffff16565b905080858381518110610dee57610ded61205b565b5b602002602001019073ffffffffffffffffffffffffffffffffffffffff16908173ffffffffffffffffffffffffffffffffffffffff1681525050600760008c73ffffffffffffffffffffffffffffffffffffffff1673ffffffffffffffffffffffffffffffffffffffff16815260200190815260200160002060008273ffffffffffffffffffffffffffffffffffffffff1673ffffffffffffffffffffffffffffffffffffffff16815260200190815260200160002054848381518110610eb857610eb761205b565b5b602002602001018181525050600660008c73ffffffffffffffffffffffffffffffffffffffff1673ffffffffffffffffffffffffffffffffffffffff16815260200190815260200160002060008273ffffffffffffffffffffffffffffffffffffffff1673ffffffffffffffffffffffffffffffffffffffff16815260200190815260200160002054838381518110610f5457610f5361205b565b5b602002602001018181525050508080610f6c90611f85565b915050610d7d565b5082828295509550955050505093509350939050565b60096020528060005260406000206000915090505481565b610faa61103b565b600073ffffffffffffffffffffffffffffffffffffffff168173ffffffffffffffffffffffffffffffffffffffff16141561101a576040517f08c379a000000000000000000000000000000000000000000000000000000000815260040161101190611c58565b60405180910390fd5b611023816110b9565b50565b6000611034826000016112b0565b9050919050565b6110436112c1565b73ffffffffffffffffffffffffffffffffffffffff16611061610c62565b73ffffffffffffffffffffffffffffffffffffffff16146110b7576040517f08c379a00000000000000000000000000000000000000000000000000000000081526004016110ae90611cf8565b60405180910390fd5b565b60008060009054906101000a900473ffffffffffffffffffffffffffffffffffffffff169050816000806101000a81548173ffffffffffffffffffffffffffffffffffffffff021916908373ffffffffffffffffffffffffffffffffffffffff1602179055508173ffffffffffffffffffffffffffffffffffffffff168173ffffffffffffffffffffffffffffffffffffffff167f8be0079c531659141344cd1fd0a4f28419497f9722a3daafe3b4186f6b6457e060405160405180910390a35050565b60006111a5836000018373ffffffffffffffffffffffffffffffffffffffff1660001b6112c9565b905092915050565b60006111d5836000018373ffffffffffffffffffffffffffffffffffffffff1660001b6112ec565b905092915050565b611260846323b872dd60e01b8585856040516024016111fe93929190611b6f565b604051602081830303815290604052907bffffffffffffffffffffffffffffffffffffffffffffffffffffffff19166020820180517bffffffffffffffffffffffffffffffffffffffffffffffffffffffff838183161783525050505061135c565b50505050565b600061128e836000018373ffffffffffffffffffffffffffffffffffffffff1660001b611423565b905092915050565b60006112a58360000183611537565b60001c905092915050565b600081600001805490509050919050565b600033905090565b600080836001016000848152602001908152602001600020541415905092915050565b60006112f883836112c9565b611351578260000182908060018154018082558091505060019003906000526020600020016000909190919091505582600001805490508360010160008481526020019081526020016000208190555060019050611356565b600090505b92915050565b60006113be826040518060400160405280602081526020017f5361666545524332303a206c6f772d6c6576656c2063616c6c206661696c65648152508573ffffffffffffffffffffffffffffffffffffffff166115629092919063ffffffff16565b905060008151111561141e57808060200190518101906113de9190611817565b61141d576040517f08c379a000000000000000000000000000000000000000000000000000000000815260040161141490611d38565b60405180910390fd5b5b505050565b6000808360010160008481526020019081526020016000205490506000811461152b5760006001826114559190611ea4565b905060006001866000018054905061146d9190611ea4565b90508181146114dc57600086600001828154811061148e5761148d61205b565b5b90600052602060002001549050808760000184815481106114b2576114b161205b565b5b90600052602060002001819055508387600101600083815260200190815260200160002081905550505b856000018054806114f0576114ef61202c565b5b600190038181906000526020600020016000905590558560010160008681526020019081526020016000206000905560019350505050611531565b60009150505b92915050565b600082600001828154811061154f5761154e61205b565b5b9060005260206000200154905092915050565b6060611571848460008561157a565b90509392505050565b6060824710156115bf576040517f08c379a00000000000000000000000000000000000000000000000000000000081526004016115b690611c98565b60405180910390fd5b6115c88561168e565b611607576040517f08c379a00000000000000000000000000000000000000000000000000000000081526004016115fe90611d18565b60405180910390fd5b6000808673ffffffffffffffffffffffffffffffffffffffff1685876040516116309190611b3d565b60006040518083038185875af1925050503d806000811461166d576040519150601f19603f3d011682016040523d82523d6000602084013e611672565b606091505b50915091506116828282866116b1565b92505050949350505050565b6000808273ffffffffffffffffffffffffffffffffffffffff163b119050919050565b606083156116c157829050611711565b6000835111156116d45782518084602001fd5b816040517f08c379a00000000000000000000000000000000000000000000000000000000081526004016117089190611c36565b60405180910390fd5b9392505050565b600081359050611727816122fb565b92915050565b60008151905061173c81612312565b92915050565b60008135905061175181612329565b92915050565b60006020828403121561176d5761176c6120b9565b5b600061177b84828501611718565b91505092915050565b6000806040838503121561179b5761179a6120b9565b5b60006117a985828601611718565b92505060206117ba85828601611718565b9150509250929050565b6000806000606084860312156117dd576117dc6120b9565b5b60006117eb86828701611718565b93505060206117fc86828701611742565b925050604061180d86828701611742565b9150509250925092565b60006020828403121561182d5761182c6120b9565b5b600061183b8482850161172d565b91505092915050565b6000806040838503121561185b5761185a6120b9565b5b600061186985828601611742565b925050602061187a85828601611718565b9150509250929050565b600061189083836118b4565b60208301905092915050565b60006118a88383611b1f565b60208301905092915050565b6118bd81611ed8565b82525050565b6118cc81611ed8565b82525050565b60006118dd82611dca565b6118e78185611e10565b93506118f283611daa565b8060005b8381101561192357815161190a8882611884565b975061191583611df6565b9250506001810190506118f6565b5085935050505092915050565b600061193b82611dd5565b6119458185611e21565b935061195083611dba565b8060005b83811015611981578151611968888261189c565b975061197383611e03565b925050600181019050611954565b5085935050505092915050565b61199781611eea565b82525050565b60006119a882611de0565b6119b28185611e32565b93506119c2818560208601611f20565b80840191505092915050565b60006119d982611deb565b6119e38185611e3d565b93506119f3818560208601611f20565b6119fc816120be565b840191505092915050565b6000611a14602683611e3d565b9150611a1f826120cf565b604082019050919050565b6000611a37603483611e3d565b9150611a428261211e565b604082019050919050565b6000611a5a602683611e3d565b9150611a658261216d565b604082019050919050565b6000611a7d602c83611e3d565b9150611a88826121bc565b604082019050919050565b6000611aa0602883611e3d565b9150611aab8261220b565b604082019050919050565b6000611ac3602083611e3d565b9150611ace8261225a565b602082019050919050565b6000611ae6601d83611e3d565b9150611af182612283565b602082019050919050565b6000611b09602a83611e3d565b9150611b14826122ac565b604082019050919050565b611b2881611f16565b82525050565b611b3781611f16565b82525050565b6000611b49828461199d565b915081905092915050565b6000602082019050611b6960008301846118c3565b92915050565b6000606082019050611b8460008301866118c3565b611b9160208301856118c3565b611b9e6040830184611b2e565b949350505050565b6000604082019050611bbb60008301856118c3565b611bc86020830184611b2e565b9392505050565b60006060820190508181036000830152611be981866118d2565b90508181036020830152611bfd8185611930565b90508181036040830152611c118184611930565b9050949350505050565b6000602082019050611c30600083018461198e565b92915050565b60006020820190508181036000830152611c5081846119ce565b905092915050565b60006020820190508181036000830152611c7181611a07565b9050919050565b60006020820190508181036000830152611c9181611a2a565b9050919050565b60006020820190508181036000830152611cb181611a4d565b9050919050565b60006020820190508181036000830152611cd181611a70565b9050919050565b60006020820190508181036000830152611cf181611a93565b9050919050565b60006020820190508181036000830152611d1181611ab6565b9050919050565b60006020820190508181036000830152611d3181611ad9565b9050919050565b60006020820190508181036000830152611d5181611afc565b9050919050565b6000602082019050611d6d6000830184611b2e565b92915050565b6000606082019050611d886000830186611b2e565b611d9560208301856118c3565b611da260408301846118c3565b949350505050565b6000819050602082019050919050565b6000819050602082019050919050565b600081519050919050565b600081519050919050565b600081519050919050565b600081519050919050565b6000602082019050919050565b6000602082019050919050565b600082825260208201905092915050565b600082825260208201905092915050565b600081905092915050565b600082825260208201905092915050565b6000611e5982611f16565b9150611e6483611f16565b9250827fffffffffffffffffffffffffffffffffffffffffffffffffffffffffffffffff03821115611e9957611e98611fce565b5b828201905092915050565b6000611eaf82611f16565b9150611eba83611f16565b925082821015611ecd57611ecc611fce565b5b828203905092915050565b6000611ee382611ef6565b9050919050565b60008115159050919050565b600073ffffffffffffffffffffffffffffffffffffffff82169050919050565b6000819050919050565b60005b83811015611f3e578082015181840152602081019050611f23565b83811115611f4d576000848401525b50505050565b60006002820490506001821680611f6b57607f821691505b60208210811415611f7f57611f7e611ffd565b5b50919050565b6000611f9082611f16565b91507fffffffffffffffffffffffffffffffffffffffffffffffffffffffffffffffff821415611fc357611fc2611fce565b5b600182019050919050565b7f4e487b7100000000000000000000000000000000000000000000000000000000600052601160045260246000fd5b7f4e487b7100000000000000000000000000000000000000000000000000000000600052602260045260246000fd5b7f4e487b7100000000000000000000000000000000000000000000000000000000600052603160045260246000fd5b7f4e487b7100000000000000000000000000000000000000000000000000000000600052603260045260246000fd5b7f4e487b7100000000000000000000000000000000000000000000000000000000600052604160045260246000fd5b600080fd5b6000601f19601f8301169050919050565b7f4f776e61626c653a206e6577206f776e657220697320746865207a65726f206160008201527f6464726573730000000000000000000000000000000000000000000000000000602082015250565b7f556e61626c6520746f20636c61696d2c20323420686f757273207374696c6c2060008201527f68617665206e6f74206861766520706173736564000000000000000000000000602082015250565b7f416464726573733a20696e73756666696369656e742062616c616e636520666f60008201527f722063616c6c0000000000000000000000000000000000000000000000000000602082015250565b7f596f7520617265206e6f74207374616b696e6720696e746f207468697320706c60008201527f6179657220616464726573730000000000000000000000000000000000000000602082015250565b7f4e6f7420656e6f756768207374616b656420616d6f756e7420696e746f20746860008201527f6520706c61796572000000000000000000000000000000000000000000000000602082015250565b7f4f776e61626c653a2063616c6c6572206973206e6f7420746865206f776e6572600082015250565b7f416464726573733a2063616c6c20746f206e6f6e2d636f6e7472616374000000600082015250565b7f5361666545524332303a204552433230206f7065726174696f6e20646964206e60008201527f6f74207375636365656400000000000000000000000000000000000000000000602082015250565b61230481611ed8565b811461230f57600080fd5b50565b61231b81611eea565b811461232657600080fd5b50565b61233281611f16565b811461233d57600080fd5b5056fea26469706673582212208b3aec027c324455cd7f295d333f99e328795893a6f73fc886c94ac9718d1c3364736f6c63430008060033",
    "linkReferences": {},
    "deployedLinkReferences": {}
}